:1000000000000120992C0000C12C0000E50900002F
:10001000C52C0000C72C0000C92C00000000000007
:10002000000000000000000000000000CB2C0000D9
:10003000CD2C000000000000CF2C0000D12C0000CF
:10004000D32C0000D32C0000E11D00001121000082
:1000500031200000D32C0000551C0000851E00003C
:10006000E1200000F1200000D32C0000D32C000080
:10007000D32C0000D32C0000D32C0000D32C000084
:10008000D32C000015060000D32C0000D32C000058
:10009000B1060000D32C0000D32C0000D32C0000AC
:1000A000D32C0000D32C0000D32C0000D32C000054
:1000B000D32C0000D32C0000000000000000000042
:1000C000D32C0000D32C0000D32C0000D32C000034
:1000D000D32C0000D32C0000D32C00000000000023
:1000E0000000000000000000000000000000000010
:1000F0000000000000000000000000000000000000
:1001000000000000000000000000000000000000EF
:1001100000000000000000000000000000000000DF
:1001200000000000000000000000000000000000CF
:1001300000000000000000000000000000000000BF
:1001400000000000000000000000000000000000AF
:10015000000000000000000000000000000000009F
:10016000000000000000000000000000000000008F
:10017000000000000000000000000000000000007F
:10018000000000000000000000000000000000006F
:10019000000000000000000000000000000000005F
:1001A000000000000000000000000000000000004F
:1001B000000000000000000000000000000000003F
:1001C000000000000000000000000000000000002F
:1001D000000000000000000000000000000000001F
:1001E000000000000000000000000000000000000F
:1001F00000000000000000000000000000000000FF
:1002000010B5054C237833B9044B13B10448AFF350
:1002100000800123237010BDFC09002000000000B5
:1002200084A2000008B5034B1BB103490348AFF398
:10023000008008BD00000000000A002084A2000029
:10024000154B002B08BF134B9D46A3F5803A0021A8
:100250008B460F461348144A121A02F05FFE0F4BEA
:10026000002B00D098470E4B002B00D09847002061
:10027000002104000D000D48002802D00C4804F0B5
:1002800021FF02F037FD2000290000F02DF802F0D8
:1002900021FD00BF00000800000001200000000058
:1002A00000000000FC09002078140020C550000068
:1002B000956200001FB54FF0000C132014214FF081
:1002C000CD638DE80B106946054801F0C9F918B1F6
:1002D000044A412100F088F905B05DF804FB00BF35
:1002E0006C8E0000648E000007B54FF08043012241
:1002F000C3F878250E4CFFF7DDFF002301934FF480
:10030000FA7544F001044FF47A40A047013DFAD158
:10031000084800F01BF9019800F01EF900F048F9B8
:1003200041F288354FF47A40A047013DFAD1F5E714
:10033000408E00006C8E000038B5054D044645F037
:1003400001054FF47A40A847013CFAD138BD00BFFF
:10035000008F00007FB506460D46144672B600F0C9
:100360009DFF00F0FFFD0028FBD1374802F082FE20
:1003700044F201039E4254D044F202039E425ED1F5
:1003800022886168314802F013FE01F06FFB08B962
:1003900001F038FB0023ADF80C308DF80E3003A9C6
:1003A000012319208DF80D3001F06AFB03A91820F4
:1003B00001F066FB03A9172001F062FB192001F090
:1003C0001BFC182001F018FC172001F015FC4FF45D
:1003D000FA70FFF7B1FF192001F0E0FB182001F0DF
:1003E000DDFB172001F0DAFB3220FFF7A5FF192013
:1003F00001F002FC182001F0FFFB172001F0FCFBCC
:100400004FF4FA70FFF798FF192001F0C7FB18208E
:1004100001F0C4FB172001F0C1FBFA20FFF78CFFAD
:10042000CCE7A668304601F00DF8236801950093EB
:10043000024663680648314602F0BAFDA5E7294640
:10044000044802F0B5FDA0E7848E00009C8E0000F9
:10045000B78E0000E18E000007B501F007FB08B978
:1004600001F0D0FA0023ADF804308DF8063001A970
:10047000012319208DF8053001F002FB01A9182095
:1004800001F0FEFA01A9172001F0FAFA192001F093
:10049000B3FB182001F0B0FB172001F0ADFB4FF4C7
:1004A000FA70FFF749FF192001F078FB182001F0DE
:1004B00075FB172001F072FB3220FFF73DFF19207A
:1004C00001F09AFB182001F097FB172001F094FB34
:1004D0004FF4FA70FFF730FF192001F05FFB18208E
:1004E00001F05CFB172001F059FBFA20FFF724FF15
:1004F000CCE700000000000008B5134B1A785B78C9
:1005000003F00F0343EA0213DBB2120907EE903A3D
:100510000123934007EE103AF8EE677AB8EEC77AF7
:1005200067EE877A17EE900A07F07AFF04A3D3E903
:10053000002307F0CDFF08F0A3FA00EE100A08BD73
:100540000AD7A3703D0AA73F580A0020014B186044
:10055000704700BF5C0A00201FB5C0F30723C2B27A
:100560009B0143EAC213C0F3026203901343C0F33A
:1005700007400B4A43EAC00300210A485370009128
:100580000123094A006801F0D5F830B1074A8A21F1
:1005900005B05DF804EB00F027B805B05DF804FB8A
:1005A000000000205C0A0020088F0000108F00006F
:1005B00007B50021084800910423084A006801F0AB
:1005C000B9F8074B07485A78197802F0F1FC03B0E4
:1005D0005DF804EBFFF790BF5C0A00208C8F0000F1
:1005E000580A0020AE8F000000B583B00290009141
:1005F000019244F2010071466A46FFF7ABFE03B078
:1006000000BD0000024B4FF43C6043F0010318476B
:10061000E08F0000F8B51F4B1F491B680025C1F88B
:100620004051C1F84451C1F84851C1F84C51C1F88A
:100630000051C1F804514BB3D1F80445174909687A
:10064000641A24F07F442F461A68A24209D8A41ADB
:1006500015441A7CDE691AB11F74D3E9052090474E
:10066000AEB90F4B0F4A197813788B4205D101337D
:10067000DBB2022B08BF0023137012780A4B43F839
:1006800022500A4B4FF48012C3F80021F8BD3346C4
:10069000DAE700BF800B0020001001407C0B002037
:1006A000780B0020790B0020700B002000E100E0A7
:1006B0002DE9F74F9C4A9D49137809789C4D994242
:1006C0003CD00133DBB2022B08BF002313709949E1
:1006D0001278994B0F6853F822003B1823F07F43A0
:1006E00000220B602B6816461446944613B942B19B
:1006F0002B6006E0196881420ED902B12B60091AFD
:1007000019604FF001082B68DFF834A2009300272E
:10071000BEB9DFF834B260E0401A0C44D968C3F8BF
:1007200000C0D3F81CE031B13A1922F07F42C3E98E
:100730000121DE611E4601227346D7E70026B0463E
:10074000E1E73446F6697B4A63681268DFF8FCC16A
:10075000A068991A21F07F41614500F2A58001440B
:100760002160012222742A680023C4E90133E36175
:10077000002A40F0A2802C60CAE75A1C9BF80210A5
:10078000D2B291428BF8002004BF00228BF80020E7
:10079000182202FB03B32A6819799C68022974D0D5
:1007A00003297ED0012918D1217CB1B9DA686260B1
:1007B0001A69A2605A699B69A361604BE2601B7869
:1007C000002BC0D06160BEE79C4200F0908099464B
:1007D000DB69002BF8D1002323749BF800309BF8D1
:1007E00001209A42C9D12B682FB9009A934202D1B5
:1007F000B8F1000F43D0002B41D0D3F800A0504DEA
:100800004C4BD5F804751C68DFF844813E1B98F802
:10081000003026F07F4603369BB94FF48033C5F88D
:100820004433C5F80433474B4FF400324FF001090D
:10083000C3F880211A60C5F80090FFF7E3FE88F83E
:100840000090B2452CBF5444A41924F07F44C5F84D
:100850004045D5F80435DB1B23F07F43E41B03330D
:1008600024F07F44A3420AD9D5F80435C5F84035B1
:10087000FFF7C8FE334B4FF40032C3F800212F4B73
:1008800000221A7003B0BDE8F08F13469146A0E72E
:100890001174D2690123002AFAD1002B9DD02A605D
:1008A0009BE700231946F6E7D31A23F07F438342E0
:1008B00034BFC31A0023236053E7216813689942A9
:1008C00013D8591A1160E26155E7091AD8691A4616
:1008D00038B1034618688842F7D3401A18601846A2
:1008E00013462160E061DC6112E71346F2E74C45F4
:1008F0000DD1D3692B6053B90E4801920121CAF87A
:10090000081003600D4B1970FFF77CFE019AE16936
:100910002368C9F81C1011B1086803440B602B68E8
:100920009A4218BF012756E7780B0020790B002068
:10093000800B00207C0B0020700B00206C0B002033
:100940000010014000E100E0600A0020FEFF7F008F
:100950006D0B002072B6024A1368013313607047B2
:10096000840B0020034A1368013B136003B962B68D
:10097000704700BF840B0020EFF30583C3F3080327
:100980002BB9EFF31480C04300F001007047012041
:100990007047000008B5FFF7EFFF012803D00449B6
:1009A000432000F0BFF8BDE80840FFF7D3BF00BF09
:1009B000E68F000008B5FFF7DFFF012803D00449E8
:1009C000512000F0AFF8BDE80840FFF7CBBF00BFF3
:1009D000E68F0000024B1B680021986802F052BBB2
:1009E000080000201EF0040F1CBFEFF309800AE08E
:1009F000EFF308800549064A884201D8904202D8A0
:100A00008D464FF00000034B184700000000012006
:100A100000E00020190A00002DE9F347044600F029
:100A20003DFC00F09FFA0028FBD1334D334E28885F
:100A3000A2693349B76A000440F0010000F00AFCE3
:100A40002888E36801930004A36800932D49D4E942
:100A5000002340F0010000F013FC2888E3690093B4
:100A60000004D4E9042340F00100274900F0FCFB16
:100A7000F36A980706D528882449000440F001004D
:100A800000F0E4FBDFF89490DFF894A000264FF02C
:100A9000010808FA06F33B4209D059F8262032B182
:100AA00028880004514640F0010000F0D3FB0136D5
:100AB0001A2EEED1390608D52888104B14495A6BE6
:100AC000000440F0010000F0C5FB3A0408D5288876
:100AD0000A4B10499A6B000440F0010000F0BAFB89
:100AE0000D4B1B68DB0700D500BE2046FFF7B4FCAA
:100AF00002B0BDE8F08700BFF009002000ED00E083
:100B00004E9000006390000098900000C09000009C
:100B10000F9100002F910000F0ED00E04C910000DB
:100B20000491000007B5ADF8000001916A4600216C
:100B300044F20200FFF70EFC03B05DF804FB50E83E
:100B4000002F0B4640E8003C9CF0000FF7D1104608
:100B5000704750E8003F43EA010240E8002C9CF057
:100B6000000FF6D11046704750E8002F02EA01034B
:100B700040E8003C9CF0000FF6D11046704750E86A
:100B8000003F03EB010240E8002C9CF0000FF6D17F
:100B90001046704750E8003FA3EB010240E8002CEC
:100BA0009CF0000FF6D1104670470121FFF7D1BF2E
:100BB0000021FFF7D9BF000038B5044620B911491C
:100BC0004FF49270FFF7AEFF0020FFF7E3FE2268BC
:100BD00063681168994213D9481E106011F8015CCE
:100BE000E368A18A01FB0535A36811791B1ADBB202
:100BF000994200D213710020FFF7DCFE284638BD71
:100C00000025F8E77496000038B50C46054620B973
:100C10000E4940F24710FFF785FF24B90B494FF406
:100C2000A470FFF77FFF0020FFF7B4FE2A68136867
:100C3000591C1160EA68A41AAA8AB4FBF2F41C7069
:100C40000020BDE83840FFF7B5BE00BF7496000035
:100C50001FB503788DF8003003798DF8043043799F
:100C60008DF8053083688DF80630C3688DF807303D
:100C70000369029343690393054A064B684653F898
:100C8000213052F82110984705B05DF804FB00BFF1
:100C9000880B0020900B0020024940F2C710FFF79C
:100CA00041BF00BFE69600001F2810B5044601D9D9
:100CB000FFF7F2FF012303FA04F44FF0A043C3F857
:100CC000084510BD024B4FF4807043F001031847F4
:100CD000E09600002DE9F14F924690F80080354AE9
:100CE00042F828A0344A42F828304B7B81460C4613
:100CF00073B308684FF0A04500F5E07340F20C6252
:100D000045F823204B6803F5E073002645F82320BF
:100D1000FFF7CAFF6068FFF7C7FF236803F5E073BA
:100D200040F20D6245F82320636803F5E0734FF04D
:100D3000010B45F82320FFF7C5FF67681F2F01D976
:100D4000FFF7AAFFD5F81035FB40DB070ED506BB31
:100D5000BAF1000F194A434608BF0022214609F1A3
:100D6000040001B0BDE8F04F01F07EBA27681F2FE4
:100D700001D9FFF791FF0BFA07F7C5F80C75FFF7DC
:100D8000A1FF01362068FFF78FFFFFF79BFF092EB9
:100D9000D3D165681F2D01D9FFF77EFF4FF0A04228
:100DA0000123AB40C2F80C35FFF78CFF6068FFF7FA
:100DB0007BFFCDE7900B0020880B0020510C00003A
:100DC00008B5037813F0030F03F0040202D012B940
:100DD000104608BDDAB103F00303012B07D0022B44
:100DE0000ED00E494FF4A470FFF79CFE06E00A688F
:100DF00000880232C0F3831002440A600120E8E751
:100E00000B684288023303EB92130B60F6E70B6822
:100E10004288013303EB92130288F4E73C97000009
:100E20002DE9F04F484C87B00D460646871C002040
:100E30000092FFF7AFFD23682B60D4E90123134430
:100E4000226801339B1A04F21C4804F5836B04F2F8
:100E50001449BB4219D3009A0023002A6CD0012206
:100E600062F3010343F0040366F389132168A26867
:100E70000A4003320F44002044F822302760FFF775
:100E800099FD012007B0BDE8F08F01214046FFF732
:100E900076FE5846FFF789FE0DF1180A4846FFF71F
:100EA00084FE60684AF8100DA5682840033004EB02
:100EB00080005146FFF784FF02460298002AF4D1D1
:100EC00005EA000304EB8303811CDB680393013014
:100ED000054004EB850503F00303012B0291ED6847
:100EE00023D0022B08D0194901924FF4C270FFF7AA
:100EF00019FE019A154607E0BDF80E309B09033331
:100F00002D0C01EB930302934846FFF751FE08B105
:100F1000029B636029464046FFF731FED4E9012376
:100F20001344226801339B1A93E7BDF80C30C3F3D6
:100F300083132D0C0B44E6E7022262F3010343F016
:100F4000040366F39F5391E7680C00203C97000070
:100F5000034BD3E90030C31A58425841704700BFD1
:100F6000680C00202DE9F04385B0FFF7F1FF07463C
:100F7000002840F0F2807A4DC5F81804BFF34F8F77
:100F80006868AC680DF1100848F8100D2040033077
:100F900005EB80004146FFF713FF009B0646002843
:100FA0005FD104EA0302991C013305EB820223405E
:100FB00005EB8303D268DB68029302F00303022B84
:100FC0000192009162D1BDF8063066484FEA93184D
:100FD000B8F1500FC14628BF4FF0500969F38F1385
:100FE00009F10801ADF8063000F0C4F90746002801
:100FF00000F0A18000F0EDF9334601A9082238463F
:1010000000F0FAF9009924EA01060136B600B1456C
:1010100035D95FFA89F97EB3F6B2A9EB060921400A
:1010200003315FFA89F4B1464F4E05EB8101082385
:101030004A46384600F0E0F936B109F10803224685
:101040003146384600F0D8F9009B08F1030803EB5D
:1010500098030093D5F81834002B4AD1D5F81044E2
:1010600058E02A689A4204D86A60384605B0BDE85C
:10107000F08304EA03008AE73B493446D7E721407E
:10108000033108234A4605EB8101DAE7012B52D1EF
:10109000BDF804303348C3F38311062928BF062165
:1010A00061F3891302318900ADF8043000F062F970
:1010B000074600283FD000F08CF93346082201A9EA
:1010C000384600F099F9BDF80420C2F38312B31C2E
:1010D00096424FEA8303BDD200994A1C2140033156
:1010E000009205EB81010422384600F085F90136B3
:1010F000E9E7384600F071F9FFF72AFF80F00100B8
:10110000C7B2B2E7637A23B1236839461B68204629
:1011100098476468002CF5D1384600F05EF9204607
:10112000FFF738FCD5F818340BB9009B6B60002032
:10113000FFF740FCE0E7D5F8104444B90B4B0C49ED
:101140001888000440F0020000F080F8D4E723681B
:1011500020469B6898476468EFE7002785E700BF53
:10116000680C0020F0A20000740C0020E8090020A8
:10117000B39700002DE9F74F2F4C80460F4691465C
:1011800001A9012218469B46D4F808A0FFF748FEA3
:1011900000283DD0019D0026A91C5E4506EB0102FA
:1011A00040D100212548FFF7CAFC80F3100B244BE7
:1011B000244A4FEA18499B1AB9EBD30F04D32249AA
:1011C00040F2A910FFF7AEFC6B1C03EA0A0304EB24
:1011D000830349EA0B42DA6005EA0A03033301217B
:1011E00014F8232068F3C50204F8232034F82320E0
:1011F00066F3891224F8232054F8232067F39F22F2
:1012000044F8232061F301026FF3820204F82320E3
:1012100094F820341BB1FFF7A5FE0028FBD103B0E2
:10122000BDE8F08F0AEA020204EB820259F8263088
:10123000D3600136B1E700BF680C002084100020A5
:10124000F0A2000088A200003C97000000231A468C
:10125000FFF790BF13B502AC012344F8042D2246DA
:10126000FFF788FF02B010BD1FB5CDE90123069B33
:10127000039301AA0323FFF77DFF05B05DF804FB8C
:101280001FB5CDE90023069B0293079B03936A4693
:101290000423FFF76FFF05B05DF804FB084A38B57B
:1012A0000123D2F8104482F820341D4604B938BD19
:1012B0002368657220465B6898476468F6E700BF5C
:1012C000680C00202DE9F84FB0F806A09DF8289092
:1012D000174603321C1D13444279B4FBFAF55344FC
:1012E000B3FBFAF3DBB29A42064688460AFB154482
:1012F00003D21449BA20FFF715FC3DB9AAEB040B41
:10130000BB4528BFBB4627B9BDE8F88F3668013D0D
:10131000F3E7043408EB050034445A46B9F1000FF2
:101320000DD02146A7EB0B0701F05EFDBA455D44E9
:101330003668D3464FF0000428BFBB46E3E70146BA
:101340002046EFE7E4970000F8B546790146721EA3
:101350000546002393422D6803D30024A64202D8F9
:10136000F8BD0133F6E70F682846FFF74DFC01345E
:101370003946F3E72DE9F843868ACD1C0746FFF787
:101380001BFC043E35440446B5FBF6F5F0B14FF4C2
:101390008073EDB28380C680013D076081464FF0C7
:1013A0000008A84512D23846FFF706FC064648B1A9
:1013B00063790133637108F10108C9F8000007601F
:1013C0008146EEE72046FFF7BFFF34462046BDE8E2
:1013D000F88301210430FFF7D2BB10B50121044688
:1013E0000430FFF7D7FB10F0FF0F04D12046BDE813
:1013F0001040FFF7A9BF10BD13B500240094FFF7FC
:1014000061FF02B010BD00000D4930B5A1F58C722E
:101410000225914201D800200EE08B1ADB1093FBCD
:10142000F5F302EBC30452F83330834205D802D2FD
:1014300004F10802EDE7606830BD2146E9E700BF2E
:101440008099000008B5FFF7DFFF024B002808BFB6
:10145000184608BD54980000C0B2002348700B70B5
:101460007047000070B50D46044618B90849712050
:10147000FFF758FB23681A6812683AB11A681B68AC
:1014800051681B682846BDE87040184770BD00BF12
:10149000119D0000F0B5044687B018B92D493720DA
:1014A000FFF740FB2368187E1A68C0B207B296683F
:1014B0004FEAC70C06EB0C0256F8376051791779E2
:1014C000927912F0010F4FEA510501F0010139D074
:1014D000002937D1D3F800E09EF80CE001307045C8
:1014E00030DAD3F800E00CF10800DEF808C08444DC
:1014F0009CF805C0B5EB5C0F24D11A6891680A18F6
:1015000051F800C0187E517992F804E092790130C8
:1015100011F0010F4FEA4212C0B20CBF03210221A9
:1015200002F0200218768DF8041004F10C0001A9D5
:101530008DF80550CDE9027ECDE9046C00F0EAFF9C
:1015400007B0F0BD52014FF0000C02F02002E64659
:10155000E9E700BF119D00002DE9F84F0E46044653
:1015600018B927498720FFF7DDFA2568DFF894B01E
:101570004FF000090020FFF70DFA16B923681B6829
:1015800043B900222946606800F0B4F988B3C5F871
:10159000009000260020FFF70DFA7EB32B681B6930
:1015A0004BBB2F1D10223946686901F0EBFBA8B137
:1015B00004F10C0A504604F1080800F04FFF2346DE
:1015C0005A4639464046FFF785FB18B10C49B4200E
:1015D000FFF7A8FA504600F0F9FE6F6185F8189001
:1015E0002046FFF757FF014640B12046FFF73AFF7C
:1015F000C0E70126CEE72B681F69D3E7BDE8F88F67
:10160000119D00000916000038B50C46054618B9B2
:101610001249D220FFF786FA23681B681BB90F49CD
:10162000D820FFF77FFA297871B92268137E1068F5
:101630000133007BDBB2984207D913762046FFF7CF
:1016400029FF014608B938BD03212046FFF70AFFEC
:1016500020460121BDE83840FFF77EBF119D000004
:10166000F8B50D46044620B918494FF48470FFF7C9
:1016700059FA636823B9154940F20910FFF752FA85
:1016800063689B6823B911494FF48570FFF74AFAE4
:1016900025B90E4940F20B10FFF744FA23460C4AD5
:1016A000294604F10800FFF715FB064660B904F16E
:1016B0000C0000F08BFE276895E80F003C4644F8CC
:1016C000046B84E80F007C613046F8BD119D00007A
:1016D0000916000037B50546019120B9144940F2BA
:1016E0002D10FFF71FFA019B23B911494FF4977092
:1016F000FFF718FA019B9B6823B90D4940F22F10A0
:10170000FFF710FA019B1B7B23B909494FF498702E
:10171000FFF708FA01A9686800F07CF8044618B9D8
:1017200001462846FFF718FF204603B030BD00BF32
:10173000119D00002DE9F04186B0884617461E46EF
:101740000C9C054620B9194940F24F10FFF7EAF901
:1017500027B916494FF4A870FFF7E4F926B91349E1
:1017600040F25110FFF7DEF90023ADF800300123FD
:101770008DF8003001A90E4B01932846CDF808D012
:1017800003978DF81060CDF81480FFF7A3FF20B108
:1017900006B0BDE8F08104B1A0479DF80030002BF1
:1017A000F9D19DF80100C0B2F2E700BF119D000021
:1017B00059140000026813685268934291BFD01A0E
:1017C00080680130801888BFC01A704738B50C4651
:1017D000054618B904497720FFF7A4F9AB68A3427E
:1017E0008CBF601C002038BD789D000038B50446D1
:1017F00018B907498A20FFF795F9236820461D6824
:101800005968FFF7E3FF431B5842584138BD00BFFA
:10181000789D00002DE9F0410D46044618B92B498A
:101820009520FFF77FF91DB928499620FFF77AF92F
:101830000020FFF7AFF82046FFF7D8FF804610B131
:10184000237C002B3BD1276820467E687968FFF710
:10185000BDFF7860B8F1000F05D0276820463968D1
:10186000FFF7B4FF3860E2686068531E072B20D88A
:10187000DFE803F004101F141F1F1F182B78835577
:101880002046FFF797FF23689A68824200D298604B
:10189000002415E02B8820F81630F1E72B6840F87B
:1018A0002630EDE7D5E9002300EBC600C0E90023B0
:1018B000E6E7294606FB020001F096FAE0E7042479
:1018C0000020FFF777F82046BDE8F081789D000002
:1018D00010B5044620B9064940F20A20FFF722F964
:1018E000236818685B68C31A5842584110BD00BF8E
:1018F000789D00002DE9F0410C469046054618B948
:101900002249D920FFF70EF91CB92049DA20FFF748
:1019100009F90020FFF73EF82846FFF7D9FF002815
:1019200032D12F683E68B8F1000F04D139682846DB
:10193000FFF74CFF3860EA686968531E072B1DD813
:10194000DFE803F0040D1C111C1C1C158B5D2370BB
:1019500000240020FFF72EF82046BDE8F08131F882
:1019600016302380F4E751F826302360F0E701EBCE
:10197000C601D1E90023C4E90023E9E706FB02110F
:10198000204601F031FAE3E70524E2E7789D000004
:1019900000F1804000F5C040002382B0036003687E
:1019A0000193019B02B07047054B4FF0FF320728AF
:1019B00043F8202084BF1B1883F84820704700BFDD
:1019C0008C100020024940F2C710FFF7ABB800BFEF
:1019D000E69600001F2838B504460D4601D9FFF7EA
:1019E000F1FFA00000F1A040D0F8003723F440330D
:1019F000C0F80037D0F8003743EA0543C0F8003795
:101A000038BD0000164991F8583010B52BBBFF20A7
:101A1000CA180133202B82F83000F9D10024E0B23B
:101A20000134FFF7C1FF0C2CF9D10E4B0022E0204E
:101A30004A6583F806034020C3F8800118604FF41C
:101A4000BE70FFF7A5FF084B4FF00040C3F804033A
:101A5000012381F85830104610BD0820FCE700BF74
:101A60008C10002000E100E000600040034B93F880
:101A70005800003018BF0120704700BF8C100020B4
:101A80001F2870B504460D4604D9414940F22D1077
:101A9000FFF748F83F4E96F85830012B04D03C49E8
:101AA0004FF49770FFF73EF825B9394940F22F10EF
:101AB000FFF738F8331993F93020013265D1AA784D
:101AC000002A54D0002356F8231001314FEA830234
:101AD00048D1311902F1804202F5C04281F830301C
:101AE0000021D2F8100546F823102B78697820F4ED
:101AF00098101B04090520F4F85001F4801103F438
:101B00004033C2F810050B432102D2F8100501F44E
:101B1000F8510B430343C2F810356B78012B4FF09B
:101B2000010528D11F2C01D9FFF74CFF4FF0A0432E
:101B3000A540C3F808551F2C01D9FFF743FF04F552
:101B4000E0724FF0A043032143F82210E20812494B
:101B5000012304F0070403FA04F48B5C1C438C5447
:101B6000002003E00133082BADD1042070BDFE221C
:101B700083F83020D1E71F2C01D9FFF723FF4FF066
:101B8000A043A540C3F80C55D5E70820EEE700BFF9
:101B9000D99D00008C100020E01000201F2838B5CF
:101BA000054604D9124940F27910FEF7BBFF114CEB
:101BB000621992F93020013204D10D494FF4BD7001
:101BC000FEF7B0FF631993F83030072B04D80849AB
:101BD00040F27B10FEF7A6FF1F2D01D9FFF7F2FEA2
:101BE000012303FA05F54FF0A043C3F8085538BDAB
:101BF000D99D00008C1000201F2838B5054604D957
:101C0000124940F28310FEF78DFF114C621992F9D0
:101C10003020013204D10D494FF4C270FEF782FF2B
:101C2000631993F83030072B04D8084940F2851027
:101C3000FEF778FF1F2D01D9FFF7C4FE012303FA39
:101C400005F54FF0A043C3F80C5538BDD99D0000F1
:101C50008C1000202DE9F04F87B000245B4A5C4EC9
:101C60005C4D039401211368A2F5C040012B80B2A2
:101C700006D1D6F804330B4202D0FFF789FE0C439D
:101C80000432AA424FEA4101EDD1534B1B68012BAC
:101C90000AD14FF4BE70FFF77BFE4FF0A04344F033
:101CA0000044D3F81035039314F0FF0F1AD04B4FB4
:101CB00000250126344210D0AB0003F1804303F528
:101CC000C043D3F81005D3F8101557F82530C0F3EA
:101CD0000420C1F3014103B198470135082D4FEAB3
:101CE0004606E7D1002C6EDA00224FF0FF33CDE933
:101CF00004233A4F4FF0000A56464FF0A04907EB35
:101D00000A0393F95040631C46D0E4B2012224F048
:101D1000C00504F0070B02FA0BFBEB0806AAD1186A
:101D200011F8042C12EA0B0F36D07A19A40992F993
:101D3000302057F82280B8F1000F0AD1032C2BD1A4
:101D40000DF1100C1CF8030040EA0B000CF8030026
:101D500001E0032CF4D01F2D03D90191FFF732FECF
:101D6000019911F80C1C05F5E07311EA0B0F59F8F5
:101D70002330C3F3014320D0022B0DD1032C05D116
:101D800021462846FFF726FE0136F6B2B8F1000FCD
:101D900002D021462846C0470AF1010ABAF1040FD1
:101DA000ADD186B14FF0A043039AD3F810359A42D3
:101DB00009D00393049B05939CE7032BECD1032CE0
:101DC000E4D10221DDE707B0BDE8F08F00610040FB
:101DD00000600040206100407C6100408C100020C9
:101DE00010B5054C22681AB904495120FEF79AFE35
:101DF0002368BDE810401847E8100020419E00000D
:101E000038B50D4628B90C497720FEF78BFE002027
:101E100038BD0A4B9842FAD10020FEF7BBFD084BB3
:101E20001C7914B901221D601A710020FEF7C2FD51
:101E3000002CECD01120EBE7419E00000020004078
:101E4000E810002018B906499B20FEF76BBE054B31
:101E5000984201BF044B00221A601A71704700BFFC
:101E6000419E000000200040E810002000F180406A
:101E700000F5E040002382B0036003680193019BFA
:101E800002B07047F0B5514B514C1B6885B0DBB1C7
:101E90004FF4827094F82E20FFF7E8FF12B194F807
:101EA0002F30A3B1636802932389ADF80C30E36847
:101EB00000218DF80410002B44D12374236801A85D
:101EC0009847002384F82F3094F82E3003B3414B09
:101ED0001B68EBB14FF48070FFF7C8FF94F82D201A
:101EE000638B91B28B4238D95B1A21899BB2638391
:101EF000CB1A616801EB4301374BC3F82C16C3F8CA
:101F000030264FF48270FFF7B1FF344B01221A6084
:101F1000334B1B685BB14FF48870FFF7A7FF0023BA
:101F200004A82374022300F80C3D236898472D4B26
:101F30001B6813B34FF48A70FFF798FF00232374D4
:101F400005B0F0BD208B608363602081E160002AD2
:101F5000B4D1214B01221A60B0E7D2D1E36801214C
:101F600084F82F103BB1002161831B49C1F82C3646
:101F7000C1F83026C5E76383C3E766694FF00047C1
:101F80000125002EDCD0B6FA86F227FA02F346329B
:101F9000920026EA030602F1804303F5E0431B6842
:101FA000002BEED01046FFF761FFA2F58C72D3082C
:101FB00082F00402C2F380028DF808308DF80450DC
:101FC0008DF80920236801A89847DAE704710040DA
:101FD000F0100020007100400070004004700040CC
:101FE0001071004014710040024940F2C710FEF722
:101FF00099BD00BFE69600001F2810B5044601D920
:10200000FFF7F2FF012303FA04F44FF0A043C3F8F3
:102010000C4510BD1F2810B5044601D9FFF7E4FF99
:10202000012303FA04F44FF0A043C3F8084510BDA0
:102030004FF0402313B5D3F818310BB3114B124CAA
:1020400000221A601B680193019B236823B90F4982
:1020500040F28E20FEF766FDE07FFF2803D0A37FCD
:102060005BB1FFF7C9FF002363772372D4E9003126
:10207000074802B0BDE810401847FFF7CBFFF2E772
:1020800002B010BD1841004020110020AD9E00009C
:10209000281100202DE9F743002406460F4600F5DD
:1020A000A0754FF48038A14604F150002B688000E1
:1020B00080B26BB1D6F8043308FA04F21A4207D0A2
:1020C000C5F800902B680193019BD7E90031984730
:1020D0000134042C05F10405E6D103B0BDE8F0831A
:1020E00001490248FFF7D6BF44110020008000409C
:1020F00001490248FFF7CEBF501100200090004078
:102100000023435082B043580193019B02B07047B3
:10211000F0B5504C236887B023B94F4940F22D20C9
:10212000FEF700FD4D4AD2F824311546A3B14FF415
:1021300092711046FFF7E4FFD2F8043163B9A36847
:10214000C2F808330223A360A368C2F80433012352
:102150001362536107B0F0BDD5F80431002B49D0AC
:102160003F4F3E484FF48271FFF7CAFF0FCF01AED9
:102170000FC63B68336094F82E307BB1237B012B74
:102180000CBFD5F83C25D5F84C250292022B334BD9
:102190000CBFD3F83C35D3F84C3503934FF4B071F2
:1021A0002E48FFF7ADFF4FF4AE712C48FFF7A8FFA4
:1021B00094F8303013B194F82E303BB1274B002205
:1021C000C3F80022A260274AC3F80823234AD2F8A2
:1021D000C434C2F8C4349A0736D501238DF80030D0
:1021E00094F830300BB984F82F30D4E900316846C8
:1021F0009847AFE74FF4A4711848FFF781FF237B9E
:1022000083B9174F0FCF01AE0FC63B68336094F808
:102210003030002BDAD1C5F80032A360114BC5F87D
:102220000833D3E74FF40073C5F8003240F20223BD
:10223000A36003F1CE73C5F80833A368C5F804336F
:102240000123AB602B6285E713F0040318BF022360
:10225000C4E700BF5C110020179F00000030004061
:102260006811002002029C012DE9F74F8146934638
:1022700001930C4619B94F499820FEF753FCD4E955
:1022800000239A4203D14B499920FEF74BFC99F861
:102290000460494D342303FB06FA05EB0A0898F85D
:1022A0002D20002A40F082804449D9F80000FFF731
:1022B000A7FD074600287BD1019BC8F80430637B4B
:1022C000C8F8080088F8300088F82F0088F8323005
:1022D000D4F8008045F80AB0B8F11F0F04D9384986
:1022E00040F2C710FEF71EFC4FF0A04308F5E0785F
:1022F00040F20C6243F82820D4F804A0BAF11F0F72
:10230000984604D92E4940F2C710FEF70BFC0AF597
:10231000E07A40F20C6348F82A30D4E90012D9F888
:102320000030C3F80815C3F80C25A268C3F82425AB
:1023300034227243AA587AB3247B4FEA1338072C0D
:102340004FFA88FA03D91F496B20FEF7EBFBBAF16D
:10235000000FAEBF0AF1604308F00F031A4A4FEABC
:102360004414E4B2AABF03F56143D45483F8004394
:10237000D9F800301B0B03F01F0143F3C40323F013
:10238000604323F0030303F1604303F5614301223B
:102390008A40C3F880211A60342303FB06550123C9
:1023A00085F82D30384603B0BDE8F08F0827F9E7EF
:1023B0001127F7E7179F00005C1100201121000092
:1023C000E6960000769F000014ED00E070B50C4D1D
:1023D0000479342202FB0452064692F82D20012A89
:1023E00003D00849FA20FEF79DFB33680622C3F8A4
:1023F0000025342303FB0454022384F82D3070BDE0
:102400005C110020179F000070B5114D0479342233
:1024100002FB0452064692F82D2022B90D4940F2E3
:102420000510FEF77FFB3422336802FB04540021C1
:10243000094AA160C3F80823D3F8002222F4BC5251
:10244000C3F80022C3F80015012384F82D3070BDB5
:102450005C110020179F000002029C01F8B5294D75
:102460000479342303FB0453064693F82D301BB93B
:102470002549E120FEF756FB34236343EB5863B153
:1024800033681B0B5AB20121520903F01F0301FAF2
:1024900003F320321D4941F822303046FFF7B4FFE4
:1024A0003068FFF7CFFC342303FB045393F832303A
:1024B00003BB3368D3F808751F2F04D9144940F2C1
:1024C000C710FEF72FFB4FF0A04307F5E07702227D
:1024D00043F827203268D2F80C751F2F1E4604D906
:1024E0000B4940F2C710FEF71DFB07F5E07702230A
:1024F00046F82730342303FB0454002384F82D309E
:10250000F8BD00BF5C110020179F000000E100E053
:10251000E69600002DE9F843037904460D469046FF
:102520002BB94B68FF2B02D88B68FF2B04D9B44919
:102530004FF4EC70FEF7F6FA2779B24E34237B4362
:10254000F3583BB92B78022B04D1AD494FF4EF700F
:10255000FEF7E8FA34237B43F3583BB92B78032B7F
:1025600004D1A74940F2DF10FEF7DCFAEB6803F074
:102570006043B3F1005F03D010221046BDE8F8833A
:102580002468A14BC4F808334FF0340C0CFB076CE3
:102590009CF82F302BB1DCF80830C4F8043311223A
:1025A000EBE718F0140F0CBF012300238CF82F3039
:1025B000A946B9E80F000CF10C0EAEE80F00D9F8EF
:1025C0000030CEF80030C8F300138CF830306B7850
:1025D000C4F888354FF482712046FFF791FD4FF41F
:1025E0009271FFF78DFD18F0010318BF0123C4F8A5
:1025F000503518F0020318BF0123C4F840352B787A
:10260000032B00F2DC80DFE803F09CC4800218F0AA
:10261000100F04D07A494FF4AD70FEF783FA18F02A
:10262000080F04D0764940F25B10FEF77BFA18F0F1
:10263000040F04D072494FF4AE70FEF773FA2B69A1
:1026400003F06043B3F1005F96D14FF48073EA6802
:10265000C4F800326B68C4F844252046C4F84835F5
:102660004FF4A871FFF74CFD4FF4B071FFF748FD30
:102670004FF4A471FFF744FD01232362A360D4F853
:102680005031002BFBD04FF4A8712046FFF738FDE6
:10269000AB682A69C4F84425C4F848355B4A34233A
:1026A00003FB07639A604FF482730821002218F03D
:1026B000080F04D1287803281CBF01206050342162
:1026C00079437018715800297ED101252344196877
:1026D000002900F086803421D4F8C434C4F8C4340E
:1026E00001FB0766002186F82F10002B3FF445AF51
:1026F00013F0020F48F2012208BF032213F0040F67
:1027000048F2022318BF1A4637E76B68EA68C4F834
:102710004425C4F848352B6903F06042B2F1005FEC
:102720007FF42AAFAA68C4F834354FF48453C4F850
:102730003825C4F80032342303FB076340F2022239
:10274000B0E76B68EA68C4F8442518F0200FC4F8B5
:1027500048354FF0340310D003FB07634FF4807209
:10276000C4F80022294A9A604FF4A471FFF7C8FC0C
:102770004FF4A4730122226297E74FF4007203FB27
:102780000763C4F8002240F202229A604FF4827379
:10279000F0E76B68EA68C4F83425C4F838354FF4BC
:1027A0008053C4F80032342303FB076340F2022253
:1027B0009A600123236200214FF4827376E74FF47D
:1027C00082730821072272E718F0040F1CBF4FF430
:1027D00000738360342303FB0766B368C4F80433D3
:1027E000CBE6D4F8241100293FF471AF4FF4927175
:1027F0002046FFF785FC25624FF48273656165E72B
:10280000179F00005C11002002029C0100020400DE
:102810000369C1688B429DBF8268D21802F1FF3202
:1028200003F1FF3394BF501A581A70472DE9F04155
:10283000D0E902670446F61B406896428846154672
:10284000384405D900F0D0FA3D44E560BDE8F08198
:102850003246AD1B00F0C8FA2A4608EB0601606854
:1028600000F0C2FAF1E72DE9F843C568064689464B
:1028700017464FF000083469B3687068A54228BF56
:10288000E418013C621B5C1BBC4228BF3C469442DE
:1028900028BF144649462844224600F0A5FAB368EA
:1028A0002544AB4208BF00253F1BA044A144F5606E
:1028B000E1D14046BDE8F88310B5114C114AA26140
:1028C0000223C4E90433104BE361A2644FF40073A4
:1028D0000E4A2362E264002310220D49A362E01D28
:1028E0006362E362A3656365E365226500F092FCC1
:1028F0000849204600F08EFC2023A37110BD00BFC4
:10290000D8130020DD9F0000A011002090110020AE
:10291000E69F0000EA9F0000F8B5184C182300FB62
:10292000033503FB00402544C46A012C0F461646BC
:1029300011D003D3022C1BD000240AE02846FFF755
:1029400067FF864205D8324639462846FFF76EFFB4
:1029500034462046F8BD2846FFF75AFF86423446E3
:1029600028BF0446224639462846FFF75FFFF0E7B6
:102970002846BDE8F840FFF776BF00BFD813002017
:1029800070B50B4B1B7804460D4616460BB9FFF786
:1029900093FF0020FDF7FEFF324629462046FFF751
:1029A000BBFF04460020FEF705F8204670BD00BFBF
:1029B000D813002010B511461C461A460020FFF718
:1029C000DFFF204610BD00000C4B1B78062B10D1FA
:1029D0000B4B1B681A070CD10A4B186800F0F00368
:1029E000302B08D000F0E000A0F1400358425841DD
:1029F0007047002070470120704700BFE00F00F0D3
:102A0000E40F00F0E80F00F0094B1B78062B0CD107
:102A1000084B1B681A0708D1074B186800F0F00034
:102A2000A0F130035842584170470020704700BF62
:102A3000E00F00F0E40F00F0E80F00F008B5FFF73A
:102A4000C3FF28B17D4B7E4A1B68C3F30423136088
:102A5000FFF7DAFF10B17B4B7B4A1A60FFF7B4FF38
:102A600028B17A4B7A4A1B68C3F342331360FFF7ED
:102A7000CBFF20B1774AD36823F08073D360FFF790
:102A8000A3FF40B14FF080430022C3F80C21C3F8EC
:102A90001021C3F83825FFF7B7FF10B16E4B0322A2
:102AA0001A60FFF7B1FF40B16C4B05221A6001229A
:102AB0009A6700229A603F225A60694B1B78062B66
:102AC00050D1684B1B6819074CD1674B1B6803F04A
:102AD000F003502B46D14FF08052644BD2F80414CF
:102AE000C3F82015D2F80814C3F82415D2F80C1432
:102AF000C3F82815D2F81014C3F82C15D2F8141402
:102B0000C3F83015D2F81814C3F83415D2F81C14D1
:102B1000C3F84015D2F82014C3F84415D2F8241491
:102B2000C3F84815D2F82814C3F84C15D2F82C1461
:102B3000C3F85015D2F83014C3F85415D2F8341431
:102B4000C3F86015D2F83814C3F86415D2F83C14F1
:102B5000C3F86815D2F84014C3F86C15D2F84424B1
:102B6000C3F87025FFF730FF28B1414B414A1B687D
:102B700003F04F031360FFF727FF48B14FF0804386
:102B8000D3F80024D20744BF6FF00102C3F8002439
:102B9000394B1B68062B08D1384B1B68062B01BF2D
:102BA000374A136843F480631360364AD2F888309A
:102BB00043F47003C2F88830BFF34F8FBFF36F8FB9
:102BC0004FF01023D3F80022002A03DBD3F804329D
:102BD000002B2FDA2C4B0122C3F80425D3F8002454
:102BE000002AFBD04FF010221521C2F80012D3F8B2
:102BF0000024002AFBD04FF010231522C3F8042232
:102C0000214B1A46D3F800140029FBD00021C3F849
:102C10000415D2F80034002BFBD0BFF34F8F1949B5
:102C20001A4BCA6802F4E0621343CB60BFF34F8FC4
:102C300000BFFDE7164B174A1A6008BD24030010B9
:102C40004035014074C007400DF0ADBA4402001099
:102C50003C050040F0ED00E0A005004010560040AB
:102C6000E00F00F0E40F00F0E80F00F000C00040BB
:102C700058020010E40E0040300100103401001032
:102C80003C17004000ED00E000E001400400FA05C0
:102C9000040000200090D0030649074A074B9B1A06
:102CA00003DD043BC858D050FBDCFFF7C7FEFDF73F
:102CB000C7FA000028A3000000000020FC09002043
:102CC000FEE7FEE7FEE7FEE7FEE7FEE7FEE7FEE7DC
:102CD000FEE7FEE708B50021044602F07FF9044B49
:102CE0001868C36B03B19847204605F033FA00BF5C
:102CF000F49F000070B50D4E0D4D761BB61006D03A
:102D00000024013455F8043B9847A642F9D1094EF6
:102D1000094D761B06F084F8B61006D00024013465
:102D200055F8043B9847A642F9D170BDB809002078
:102D3000B8090020C4090020B8090020044B054A46
:102D40001B685B6B002B08BF134693F82801704784
:102D5000080000203804002082B049B15AB16BB19C
:102D600013780B601278101C18BF012002B0704756
:102D700001A9002AF3D1104602B070476FF001009C
:102D8000F4E700BF032A70B414D940EA0105AD0787
:102D900004460B4622D11D682668AE4219462046DD
:102DA00003F1040304F1040418D1043A032A204671
:102DB0001946F0D8541E72B102780B789A4208BFB7
:102DC000641806D00CE010F8012F11F8013F9A4268
:102DD00006D1A142F7D1002070BC7047541EEBE72A
:102DE000D01A70BC704700BF844641EA000313F05C
:102DF00003036DD1403A41D351F8043B40F8043B02
:102E000051F8043B40F8043B51F8043B40F8043BC4
:102E100051F8043B40F8043B51F8043B40F8043BB4
:102E200051F8043B40F8043B51F8043B40F8043BA4
:102E300051F8043B40F8043B51F8043B40F8043B94
:102E400051F8043B40F8043B51F8043B40F8043B84
:102E500051F8043B40F8043B51F8043B40F8043B74
:102E600051F8043B40F8043B51F8043B40F8043B64
:102E700051F8043B40F8043B403ABDD2303211D304
:102E800051F8043B40F8043B51F8043B40F8043B44
:102E900051F8043B40F8043B51F8043B40F8043B34
:102EA000103AEDD20C3205D351F8043B40F8043B04
:102EB000043AF9D2043208D0D2071CBF11F8013B02
:102EC00000F8013B01D30B8803806046704700BFC8
:102ED000082A13D38B078DD010F003038AD0C3F1D7
:102EE0000403D21ADB071CBF11F8013B00F8013BB9
:102EF00080D331F8023B20F8023B7BE7043AD9D378
:102F0000013A11F8013B00F8013BF9D20B7803704C
:102F10004B7843708B78837060467047F0B48607B7
:102F200043D0541E002A3ED0CAB2034602E014F138
:102F3000FF3438D303F8012B9D07F8D1032C2BD98C
:102F4000CDB245EA05250F2C45EA054516D9A4F171
:102F500010073F0903F1200606EB071603F11002E4
:102F600042E9045542E902551032B242F8D104F068
:102F70000F040137032C03EB07130DD91E4622461D
:102F8000043A032A46F8045BFAD8221F22F003020F
:102F90000432134404F003042CB1C9B21C4403F8F6
:102FA000011B9C42FBD1F0BC704714460346C5E7A9
:102FB0000FB400B5074983B004AB086853F8042B7D
:102FC0008168019300F00CFA03B05DF804EB04B0E3
:102FD000704700BF0800002070B5054688B008465D
:102FE0000C4600F08DF9224AAB6B04940126441C78
:102FF00004A90692022203940590AC680796CDE9D5
:1030000001121BB3616EB4F90C30CE079AB201D431
:10301000900525D5910406D4626E43F4005322F442
:103020000052A3816266284601AA214603F090FA65
:10303000636E00280CBF0A254FF0FF35DA0702D473
:10304000A3899B0506D5284608B070BD284603F025
:10305000E9F8D7E7A06D03F037FC284608B070BD4B
:10306000A06D03F02FFCB4F90C309AB2D2E700BF88
:1030700008A00000024B01461868FFF7ADBF00BF73
:103080000800002000290CBF022200224FF48063B8
:1030900000F000B82DE9F0435D4C256883B004468C
:1030A000884616461F4615B1AB6B002B7ED0022E0C
:1030B00005D0012E00F2A980002FC0F2A680636E19
:1030C000DA0735D52146284603F050F8216B41B187
:1030D00004F14003994202D0284603F045F9002349
:1030E0002363B4F90C3000221806A261626061D437
:1030F00023F44A6323F00303022EA3811FD100258A
:10310000616E002004F1430243F00203A060C9078E
:103110004FF00100A3812260C4E9042004D49B0580
:1031200002D4A06D03F0D0FB284603B0BDE8F083C5
:10313000A3899B05C6D4A06D03F0C4FBC2E701AB15
:103140006A462146284603F0C1FBA3891843A081A3
:10315000002F36D1009F384603F030FC804600280F
:1031600042D0A38943F08003A381AB6B7BB3009A69
:10317000B4F90C30C4F80080BA421CBF43F40063B9
:10318000A381012E04BF43F00103A3819BB213F07E
:103190000802C4E904871ED1A260656E15F001051E
:1031A000BDD00025284603B0BDE8F083284603F0D3
:1031B00039F87CE72169284603F0D6F8B4F90C30D9
:1031C00096E7B8F1000FC6D0AB6B002BCFD12846E5
:1031D00003F028F8CBE7DA0704D57F420022A76185
:1031E000A260DAE7A760D8E7DDF80090B94504D11E
:1031F000B4F90C304FF0FF3582E7484603F0DEFBB0
:1032000080460028F4D04F46ABE74FF0FF358BE700
:103210000800002080EA0102844612F0030F4FD11B
:1032200011F0030F32D14DF8044D11F0040F51F895
:10323000043B0BD0A3F101329A4312F0803F04BF4C
:103240004CF8043B51F8043B16D100BF51F8044B35
:10325000A3F101329A4312F0803FA4F101320BD165
:103260004CF8043BA24312F0803F04BF51F8043BEA
:103270004CF8044BEAD023460CF8013B13F0FF0F47
:103280004FEA3323F8D15DF8044B704711F0010F7A
:1032900006D011F8012B0CF8012B002A08BF70474B
:1032A00011F0020FBFD031F8022B12F0FF0F16BF42
:1032B0002CF8022B8CF8002012F47F4FB3D170470A
:1032C00011F8012B0CF8012B002AF9D1704700BF2F
:1032D00000000000000000000000000000000000EE
:1032E00000000000000000000000000000000000DE
:1032F00000000000000000000000000000000000CE
:1033000090F800F06DE9024520F007016FF0000C25
:1033100010F0070491F820F040F049804FF00004CD
:103320006FF00700D1E9002391F840F000F10800A8
:1033300082FA4CF2A4FA8CF283FA4CF3A2FA8CF3E0
:103340004BBBD1E9022382FA4CF200F10800A4FA47
:103350008CF283FA4CF3A2FA8CF3E3B9D1E904239B
:1033600082FA4CF200F10800A4FA8CF283FA4CF3D2
:10337000A2FA8CF37BB9D1E9062301F1200182FA8C
:103380004CF200F10800A4FA8CF283FA4CF3A2FA92
:103390008CF3002BC6D0002A04BF04301A4612BAA0
:1033A000B2FA82F2FDE8024500EBD2007047D1E9A3
:1033B000002304F00305C4F100004FEAC50514F032
:1033C000040F91F840F00CFA05F562EA05021CBF03
:1033D00063EA050362464FF00004A9E7000000001D
:1033E0002DE9F04FD7B01C46894617460546039095
:1033F00003F056FA036816931846FFF781FF089406
:1034000015901DB1AB6B002B00F00781D9F864104B
:10341000B9F90C20C80793B202D4990540F11F8175
:103420009E040AD4D9F8641042F4005321F40051E8
:10343000A9F80C30C9F864109BB21D0740F1B280A6
:10344000D9F81020002A00F0AD8003F01A020A2AF1
:1034500000F0C98000239FED867B1093CDE92B33CC
:103460001793CDE919331B93189305932DAB2A932A
:103470009B463B78CDF81C908DED127B002B00F025
:103480005982252B3C4602D11DE0252B03D014F890
:10349000013F002BF9D1E51B8DB1DDE92B32013362
:1034A0002A44072BCBF80070CBF80450CDE92B321F
:1034B00000F3CA800BF1080B059B2B44059323787E
:1034C000002B00F0378200236678069398468DF82B
:1034D0008B3004F1010A4FF0FF392B250AF1010A64
:1034E000A6F120035A2B00F22A84DFE813F0AA0386
:1034F000280428049C02280428042804A70228047D
:103500002804C602D2022804D702DC022804F602EC
:103510006D026D026D026D026D026D026D026D0233
:103520006D022804280428042804280428042804F8
:10353000FB0228043C03F303FB02FB02FB0228040A
:10354000280428042804EE03280428049A002804E8
:10355000280428045003280479032804280490032D
:1035600028042804280428042804280428042804FB
:10357000FB0228043C03C500FB02FB02FB02D10353
:10358000C50070002804B5032804C2039C00DE03B4
:1035900070002804500372002C02280428047C02C6
:1035A000280472004946039801F0A8FCA0B1D9F89C
:1035B0006430D80704D4B9F80C30990540F1B783CA
:1035C0004FF0FF330593059857B0BDE8F08F48F0F2
:1035D00020089AF8006081E7B9F80C3003F01A026D
:1035E0000A2A7FF437AFB9F90E20002AFFF632AF6E
:1035F000D9F86420D20705D49B0503D4D9F8580024
:1036000003F062F923463A464946039801F026FC46
:103610000590059857B0BDE8F08F039802F002FEC0
:10362000F4E648F0100818F0200F00F06C83089CB6
:10363000073424F00703D3E9004503F10802089298
:1036400028F4806300228CE12AAA0799039804F0E9
:10365000DFFA002841F076830DF1B40B2CE7D9F89E
:10366000580003F02FF9B9F90C2093B2D8E600BF47
:10367000000000000000000043469F0640F12F8339
:10368000089C073424F00704D4E9000104F108027F
:10369000089204460D46002871F1000205DA2D2239
:1036A000644265EB45058DF88B2056AAB9F1FF3FC2
:1036B000049200F0B284012254EA050123F080084C
:1036C00040F05981B9F1000F40F01986002A40F00E
:1036D000088513F0010356AF099302D0302307F891
:1036E000013D00230A930F9314931193099B9DF8B6
:1036F0008B204B45B8BF4B46049312B1049B01335A
:10370000049318F002030B9302D0049B023304933A
:1037100018F084032C9C0E933FD1069B04995D1AEC
:10372000002D3ADD102D2B9A29DD59462046209692
:103730001023039C079EBB4604E0103D102D01F1B1
:10374000080118DD0132BA4F1030072ACDE92B20CD
:10375000C1E90073F1DD2AAA314620460C9304F03A
:1037600057FA002840F03D84103D102DDDE92B2054
:103770002DA90C9BE6DC209E5F4604468B46013259
:10378000AB4B2C44072ACDE92B24CBE9003500F3C1
:10379000FF849DF88B200BF1080B72B12B9A01323C
:1037A00001340DF18B000121072ACDE92B24CBE94F
:1037B000000100F318840BF1080B0B9B6BB12B9BE2
:1037C0000133023423A90222072BCDE92B34CBE9A4
:1037D000001200F315840BF1080B0E9B802B00F0F8
:1037E0003183099BA9EB0305002D37DD102D2B9AA2
:1037F000904B28DD59462046BB464FF0100937460E
:103800001C46079E04E0103D102D01F1080115DD56
:1038100001321030072ACDE92B20C1E90049F2DD41
:103820002AAA3146039804F0F3F9002840F0D9831E
:10383000103D102DDDE92B202DA9E9DC3E46234665
:103840005F4604468B4601322C44072ACDE92B24DF
:10385000CBE9003500F3EF830BF1080B18F4807F00
:1038600040F080822B9B099ACBF8007001331444FE
:10387000072B2C94CBF804202B9300F392830BF1AD
:10388000080B18F0040F3BD0069B049A9D1A002DDC
:1038900036DD102D2B9B21DD1026039FDDF81C80CB
:1038A00004E0103D102D0BF1080B17DD0133604AC9
:1038B0001034072BCDE92B34CBE90026F1DD2AAA01
:1038C0004146384604F0A4F9002840F06C85103DCC
:1038D000102DDDE92B340DF1B40BE7DC0133544A34
:1038E0002C44072BCDE92B34CBE9002508DD2AAA8F
:1038F0000799039804F08CF9002840F0E9822C9C89
:103900000499DDE905328A42ACBF9B185B18059328
:10391000002C40F0D58200232B930A9B1BB10A99FF
:10392000039802F021FD0DF1B40B57463B78002BB4
:103930007FF4A7AD2C9BDDF81C90002B41F0E780B5
:1039400000232B93CBE243469A0640F14E81089C1C
:10395000073424F0070202F10801D2E9004508917A
:10396000012200218DF88B10B9F1FF3F56A9049177
:103970007FF4A2AE9846012A00F05083022A00F09C
:103980001B8356A900E03946E20842EA4572E8087E
:1039900004F0070305461446303354EA050201F8E3
:1039A000013C01F1FF37EED118F0010F00F0148354
:1039B000302B00F01183049A02393023521A07F891
:1039C000013C09920F468CE6A6F1300300221AF85A
:1039D000016B02EB820203EB4202A6F13003092BDA
:1039E000F5D906927CE5144B179318F0200F00F0E0
:1039F0001481089C073424F00703D3E9004503F140
:103A00000802089218F0010F09D054EA050306D005
:103A100030238DF88D6048F002088DF88C3028F442
:103A2000806302229DE748F001089AF8006055E59E
:103A300050A0000060A000001CA00000039E3046C3
:103A400002F02EFF436818931846FFF759FC1B90AD
:103A50000446304602F024FF83681A93002C3FF49A
:103A6000B8AD9AF80060002B3FF438AD1B78002BFE
:103A70003FF434AD48F4806830E5089B9AF8006064
:103A80001A680692002A03F10403C0F2978608938D
:103A900024E58DF88B509AF800601FE59AF80060D5
:103AA00048F004081AE59AF800602A2E0AF101028B
:103AB00001F0B081A6F13003092B92464FF00009C6
:103AC0003FF60EAD1AF8016B09EB890903EB4909C2
:103AD000A6F13003092BF5D902E548F080089AF8E1
:103AE0000060FBE4089C073424F0070494ED007B9D
:103AF00052EC171B22F000431D938DED1C7A083405
:103B0000DDE91C014FF0FF32BA4B08948DED127BBA
:103B100004F078FF002840F06F844FF0FF32B54B7F
:103B2000DDE91C0104F050FF002840F0658400220C
:103B30000023DDE9120104F03DFF002840F05B8521
:103B40009DF88B20AC4FAD4B0020032104910A90CF
:103B500028F08008472ED8BF1F46099181460F9054
:103B600014901190C9E50898002301688DF88B30F6
:103B70001A468DF8F4100123011D04930A92914610
:103B80000F9214921192CDE908133DAFB9E5089B4D
:103B90001F6800258DF88B501C1D002F00F0398602
:103BA000B9F1FF3F00F011874A462946384603F035
:103BB000BFF90A90002800F0E7850A9BDB1B0993F8
:103BC000A94623EAE37308940493CDF82890CDF82E
:103BD0003C90CDF85090CDF844909DF88B208CE52A
:103BE00048F010039A063FF5B2AE089ADF0602F1DC
:103BF000040100F17E835D06089A00F1E4849C05CF
:103C000040F177831478089100250122A9E67C4BC6
:103C1000179318F0200F7FF4ECAE089A18F0100FED
:103C200002F1040340F0548318F0400F089A40F06A
:103C3000D08418F4007F00F04B831478089300259B
:103C4000E0E69DF88B309AF80060002B7FF446ACDC
:103C500020238DF88B3041E49AF800606C2E03BF6E
:103C60009AF8016048F020080AF1010A48F01008AB
:103C700034E4089A18F0200F52F8043B089200F040
:103C8000A183059A1046D117C3E9000157464DE6B6
:103C90009AF80060682E03BF9AF8016048F4007833
:103CA0000AF1010A48F0400818E40899554B0C68DD
:103CB000179347F630020431ADF88C2048F0020328
:103CC00008910025022278264BE648F008089AF869
:103CD000006003E448F010039F063FF5D1AC08995B
:103CE000DD0601F1040200F1FD825C06089900F195
:103CF0007584980540F1F68291F900400892E51725
:103D000020462946C7E4089A18F0100F02F1040370
:103D100040F0E38218F0400F089A40F0678418F4EE
:103D2000007F00F0DA8214780893002588E4D9F83F
:103D3000580002F0C9FD4FF0FF33059343E4002E15
:103D40003FF4F8AD002301211A4604918DF8F46088
:103D50008DF88B300A9399460F9314931193099120
:103D60003DAFCEE4652E40F3CA8000220023DDE99A
:103D7000120104F015FE002800F069812B9B224AF5
:103D8000CBF80020013301340122072BCDE92B347D
:103D9000CBF8042000F306840BF1080B249B109A47
:103DA0002C9C934203DB18F0010F3FF46AAD2B9B70
:103DB000169ACBF80020159ACBF80420013314444E
:103DC000072BCDE92B3400F317850BF1080B109B63
:103DD0005D1E002D7FF755AD102D2B9A0B4B40F338
:103DE000E782194610262346039FDDF81C900C46F7
:103DF00014E000BFFFFFEF7F10A000000CA0000048
:103E000030A000001CA000004CA0000060A000003A
:103E10000BF1080B103D102D40F3C7820132103317
:103E2000072ACDE92B23CBE90046F1DD2AAA494632
:103E3000384603F0EDFE00284CD1DDE92B230DF1CF
:103E4000B40BE7E7069B049A9D1A002D7FF7C9ACD7
:103E5000102D2B9ABC4B27DD59462046BB461C46ED
:103E60003746079E04E0103D102D01F1080116DDD4
:103E7000013210301023072ACDE92B200C604B6053
:103E8000F1DD2AAA3146039803F0C2FE002840F073
:103E9000A880103D102DDDE92B202DA9E8DC3E4641
:103EA00023465F4604468B4601322C44072ACDE95F
:103EB0002B24CBE9003500F392820BF1080B90E440
:103EC0002AAA0799039803F0A3FE00283FF423AD24
:103ED000DDF81C900A9911B1039802F045FAD9F85F
:103EE0006420B9F80C30D00702D4990540F1D08194
:103EF0005A063FF565AB059857B0BDE8F08F109AAC
:103F00002B9B012A04F1010403F101050BF10806C2
:103F100040F31C810123072DCBF80070CDE92B5411
:103F2000CBF8043000F3BB81159B169A691C1C4426
:103F300007290B91CDE92B14C6E9002300F3BB81BF
:103F400008360B9A531C1D460995109D0E930022AE
:103F50000023DDE9120105F1FF3906F1080B04F039
:103F60001FFD002840F0C280099DC6F8049001376B
:103F70004C44072D37602C942B9500F3F9800B9A55
:103F800006F1100302325E4609929B46199A72604E
:103F90001444099A2C9426AB072A2B9233607FF79E
:103FA00070AC2AAA0799039803F032FE00288FD13B
:103FB0002C9C0DF1B40B64E4179856AF230904F060
:103FC0000F0143EA05732A091C461546435C07F8AE
:103FD000013D54EA0503F1D1049BDB1B0993FFF774
:103FE00080BBB14676E72AAA0799039803F010FE32
:103FF00000287FF46DAF2C9C0DF1B40BFFF7DDBBF7
:104000002AAA0799039803F003FE00287FF460AF03
:104010002C9C0DF1B40BFFF7E0BB9846002D08BFB8
:104020000A2C80F0708156AF3034012307F8014D1F
:104030000993FFF756BB2AAA0799039803F0E8FDF6
:1040400000287FF445AF2C9C0DF1B40B06E4249BB3
:10405000002B40F37382DDE910239342A8BF13467F
:10406000002B1D460DDD2B9BCBF8007001332C443B
:10407000072B2C94CBF804502B9300F3C1820BF147
:10408000080B119B002DA8BF5B1B002B1D4640F3A6
:104090009980102D2B9A2C4B40F3DB831846214638
:1040A0005B461026BB46DDF80C90079C074604E0F3
:1040B0000833103D102D40F3C78301321031072A19
:1040C000CDE92B21C3E90076F2DD2AAA2146484634
:1040D00003F09EFD002840F0A584DDE92B212DABE7
:1040E000E7E7CDF8249056AFFFF7FBBAB9F1000F20
:1040F0007FF74CAFB9F1100F134B40F359861946B7
:10410000224633461027DDF80CB0079C0E9D0E4664
:1041100007E00833A9F11009B9F1100F40F35383F8
:1041200001351032072DCDE92B52C3E90067F0DDD0
:104130002AAA2146584603F06BFD002840F07284FD
:10414000DDE92B522DABE5E760A0000018F0010F70
:104150007FF4E0AE0122072DCBF80070CDE92B549F
:10416000CBF8042004DC023309930BF1100B0DE7AC
:104170002AAA0799039803F04BFD00287FF4A8AE04
:10418000DDE92B34013309930DF1BC0B2DAEFDE6B7
:104190002AAA0799039803F03BFD00287FF498AE04
:1041A0009DF88B202C9C0DF1B40BFFF7F6BA2AAAD0
:1041B0000799039803F02CFD00287FF489AE2C9C0E
:1041C0000DF1B40B119B18F4806F3B44994640F0FD
:1041D0005783249B109A934249DB18F0010F46D174
:1041E000109ABD18A5EB0905D31A9D42A8BF1D461C
:1041F000002D0DDD2B9ACBF8009001322C44072ABC
:104200002C94CBF804502B9200F362840BF1080B32
:10421000002DACBF5D1B1D46002D7FF732AB102D6E
:104220002B9AC54B40F3C480194610262346039FA2
:10423000DDF81C900C4605E00BF1080B103D102D2D
:1042400040F3B38001321033072ACDE92B23CBE9A9
:104250000046F1DD2AAA4946384603F0D9FC002879
:104260007FF438AEDDE92B230DF1B40BE6E72B9A92
:104270001699CBF800101599CBF8041001320C44B4
:10428000072A2C942B9200F38C820BF1080BA7E7E2
:10429000D9F8580002F018FBB9F80C3028E62AAA21
:1042A0000799039803F0B4FC00287FF411AEDDE910
:1042B0002B542DAE38E62AAA0799039803F0A8FCE0
:1042C00000287FF405AEDDE92B342DAE0B9338E6E4
:1042D000146808930025FFF795BB14680893002520
:1042E000FFF7AEB90C680892E51720462946FFF79C
:1042F000D2B91468089101220025FFF732BB012AC8
:104300007FF43CAB8FE608F480630022CDE909A678
:10431000CDF82C8056AF9246DDF868801E460AE044
:104320000023204629460A2204F0FAFB04460D46E3
:1043300054EA050329D00A2200232046294604F026
:10434000EFFB303207F8012C0AF1010A013F002E81
:10435000E6D098F800309A45E2D1BAF1FF0FDFD0ED
:10436000002D08BF0A2CDBD31B9B1899FF1A1A4695
:10437000384603F0DFFB98F80130002B00F09684FC
:1043800008F101084FF0000ACAE7049BCDF86880E5
:10439000DB1BCDF840A00A9EDDF824A0DDF82C80C0
:1043A0000993FFF79EB9C14694E521461C460B468A
:1043B00001322C44072ACDE92B24CBE900357FF7C5
:1043C0005EAAEEE518F0100F40F0F88018F0400FEC
:1043D00000F05183059A1A805746FFF7A7BA2AAA18
:1043E0000799039803F014FC00287FF471AD2C9C0E
:1043F0000DF1B40BFFF7F5B9DDE9120102460B46EA
:1044000004F000FB002840F09184612E00F011813F
:10441000412E00F0778348F4807326F02002B9F132
:10442000FF3F0E930492139B00F02D84472A00F067
:104430002484002BC0F2F9829DED127BCDE90A00A5
:104440008DED1E7B662E00F0EB83462E00F07E8401
:10445000049B0398452B0CBF09F101054D4628AA82
:1044600025ABCDE90032022124AB2A469DED1E0B7F
:1044700000F0C2FE672E074640F09C8418F0010F42
:1044800040F0F983289B4046DB1BDDF83880109311
:10449000249B1193049B472B00F0E781049B462B40
:1044A00000F000830499119BF2B2412908BF0F323A
:1044B00003F1FF3306BFD2B201210021002B249368
:1044C000B8BF119B8DF89820BABFC3F101032D220C
:1044D0002B22092B8DF8992000F3F983002940F055
:1044E000878430228DF89A200DF19B0230331370AF
:1044F000531C26AA9B1A109A1993012A1344099354
:1045000040F34284099B159A1344099300230F93A7
:1045100014931193099B20F4806023EAE37340F421
:10452000807804930B9B002B40F0758299469DF890
:104530008B20FFF7E2B800BF60A000002B9ABD49B6
:10454000CBF80010013201340121072ACDE92B24D8
:10455000CBF8041060DC0BF1080B2BB9109A1AB9D8
:1045600018F0010F3FF48DA92B9A1699CBF8001083
:104570001599CBF8041001320C44072A2C942B9285
:1045800000F382820BF1080B002BC0F2E782109B34
:1045900001321C44072ACDE92B24CBE900737FF7B5
:1045A0006EA9FEE42AAA0799039803F031FB0028BC
:1045B0007FF48EAC0DF1B40BFFF7F0BB059A1A60D7
:1045C0005746FFF7B3B91488089100250122FFF779
:1045D000C8B9148808930025FFF714BAB1F9004050
:1045E0000892E51720462946FFF755B81488089326
:1045F0000025FFF725B82D228DF88B20FFF7A2BAF2
:104600002AAA0799039803F003FB00287FF460AC03
:104610002C9C0DF1B40B34E52AAA0799039803F0FA
:10462000F7FA00287FF454AC249B2C9C0DF1B40BBA
:1046300093E730238DF88C307823B9F1630F8DF830
:104640008D3048F0020400F3B08248F481730E9379
:1046500026F0200304930022139B0A92A0463DAF4C
:10466000002BC0F2E3819DED127B8DED1E7B0023BC
:104670000B93612E00F05582412E7FF4E3AE24A807
:104680009DED1E0B03F0CCF900224FF07F5351EC4F
:10469000100B03F01DFF00220023CDE90C0104F0F4
:1046A0007FF9002840F00583634B0993CDE90FA6FD
:1046B00009F1FF34CDF850902197B946CDF844B0B8
:1046C000CDF88080DDF824A0DDE90C6703E004F07C
:1046D00067F920BBA9460022584B3046394603F003
:1046E000F7FE0F46064604F0A3F9804603F086FE67
:1046F00002460B463046394603F032FD4D461AF865
:1047000008C005F801CBB4F1FF3FA34606460F46AB
:104710004FF000024FF0000304F1FF34D7D13046D0
:1047200039460022464BDDF83CA0109ECDF83CB047
:104730004446CDF84090DDF88080DDF85090DDF8FB
:1047400044B0219FCDE90C0104F052F9002840F05B
:104750007681DDE90C010022394B04F021F910B11A
:10476000E20700F16C810F9B002B07DB0F9B0133ED
:104770002B44302205F8012BAB42FBD1EB1B40460A
:104780001093DDF8388083E6CDF81090CDF82490B2
:10479000089481460F90149011909DF88B20FEF79D
:1047A000ACBF2AAA0799039803F032FA00287FF4D5
:1047B0008FAB249B2C9C0DF1B40B11E55242069259
:1047C0000893FFF76DB9144632461E4613462A4633
:1047D0000132099206F10802C6E90039099B2B93C0
:1047E0004C44072B2C943FF7C3AC0133099302F1DF
:1047F000080B1646FFF7CABB2AAA0799039803F0CD
:1048000007FA00287FF464AB2C9C0DF1B40BFFF782
:10481000DEBA4B46062B28BF0623B9460F971497DE
:1048200011970A973A460493CDE90843054FFEF7DE
:1048300064BF00BF4CA0000030A00000000030406A
:104840000000E03F44A000000C4639465F469B460E
:104850000B4601322C44072ACDE92B24CBE9003545
:104860003FF7A5AC0BF1080BACE4119BDA1C02DBA3
:10487000994580F2B580023E26F02003049311E6AC
:10488000109BCDF838805A46DDE91A8BFB18CDF81D
:104890002CA00C97AF4EDDF81CA009934F46DDF815
:1048A0000C902146149B002B5BD00F9B002B54D106
:1048B000149B013B08F1FF3814932B9B1898106050
:1048C00001335944072B2C91C2F804B02B9368DCB8
:1048D0000832099898F80030C51B9D42A8BF1D46B4
:1048E000002D0BDD2B9B176001332944072B2C91E6
:1048F00055602B935EDC98F800300832002DACBF79
:104900005D1B1D46002D26DD102D2B983CDD10244F
:1049100003E00832103D102D36DD0130103107283C
:10492000CDE92B01C2E90064F3DD2AAA51464846CD
:1049300003F06EF9002850D1DDE92B012DAAE9E73B
:104940002AAA5146484603F063F9002845D198F851
:1049500000302C992DAA1F44A4E70F9B013B0F9315
:10496000ABE70F9B002BF8D1B946109B0C9FCDF8FD
:104970006880FB189945DDF82CA0DDF83880934657
:104980000C4628BF994624E4013029440728CDE984
:104990002B01C2E90065D3DC98F8003008321F44CF
:1049A00080E72AAA5146484603F032F9A8B92C9963
:1049B0002DAA8EE72AAA5146484603F029F960B984
:1049C00098F800302C992DAA98E73846FEF798FC05
:1049D000A94603460990FFF7F4B8D146FFF77ABA23
:1049E000109B1946119B994200F38280C40740F145
:1049F0006B81159A13440993410503D5119B002B34
:104A000000F3E680099B23EAE373049367260023FF
:104A10000F93149386E52D228DF88B204FF000091B
:104A2000FEF76CBEA146FFF755BA0A90DDE91212F7
:104A300002F100431F932D231E910B9319E6109B47
:104A40002893099B15F8012CD97B91422B4609D15B
:104A5000302003F8010C289B5A1E289213F8012CD1
:104A60009142F6D0392A0BBF099A0132927AD2B21A
:104A700003F8012C82E618F4007F3FF49FAD059AFD
:104A80001A705746FEF752BF2AAA0799039803F0F7
:104A9000BFF800287FF41CAA249BDDE92B240DF12C
:104AA000B40B71E5119B002B40F36481119BB9F1AC
:104AB000000F40F00381C60700F1008109936626CC
:104AC000430500F18680099B23EAE37304939EE784
:104AD0002AAA0799039803F09BF800287FF4F8A905
:104AE000249B109A2C9CD31A0DF1B40BFFF790BBAA
:104AF000109B159A13440993119B002B40F3498195
:104B00006726DDE730238DF88C30582395E5039830
:104B10002AAA494603F07CF800287FF4E0A9FEF7B2
:104B20000FBF24A89DED1E0B02F07AFF00224FF06C
:104B30007F5351EC100B03F0CBFC00220023CDE996
:104B40000C0103F02DFF08B101232493024B0993BC
:104B5000ACE500BF60A000001CA000005D42103367
:104B6000B94B80F29780194610262346DDF80C9049
:104B70000C4605E00BF1080B103D102D40F387802B
:104B800001321033072ACDE92B23CBE90046F1DDB2
:104B90002AAA0799484603F03BF800287FF498A911
:104BA000DDE92B230DF1B40BE6E709F101010398D0
:104BB00001F014FF0746002800F03B8148F48173A0
:104BC0000E9326F020030493A046139B0A9047E51A
:104BD00067261A9800220F9214920378119AFF2BDD
:104BE0000CD093420ADA4178D21AA9B1149B01334E
:104BF00014930B46FF2B00F10100F2D11192149B8C
:104C00000F9A09991A9013441B9A02FB03130993F4
:104C100023EAE373049385E40F9901310F91DEE7F2
:104C200028AA25ABCDE90032032124AB4A469DEDED
:104C30001E0B039800F0E0FA4D46074600EB09040E
:104C40003B78302B00F0BE80249D2C4400220023B2
:104C5000DDE91E0103F0A4FE08B1234613E4289BFE
:104C6000A342BFF410AC30215A1C28921970289B23
:104C70009C42F9D807E47C19E8E7B9F1000F00F08D
:104C800092800A90ECE40A904FF00609E8E421468D
:104C90001C460B4601322C44072ACDE92B24CBE9D4
:104CA000003500F3A9800BF1080B70E49A46FFF77A
:104CB00037BB01232493654B0993F7E4159A1344FA
:104CC0004B4409936626FBE6119B099394E60DF18C
:104CD000A70C64465E4D00E01446A5FB0312D20803
:104CE00002EB8201A3EB410303F130011346092BD0
:104CF00004F8011C04F1FF32EEDC3033023CDBB27D
:104D0000A44502F8013C40F290800DF19A0411464E
:104D100001E011F8013B04F8013B8C45F9D12AABC5
:104D20009B1A0DF19A021344FFF7E3BB139B494F03
:104D3000002BB6BF2D229DF88B208DF88B20464B83
:104D4000FEF702BFDDF81C90FFF7C9B828AA25AB13
:104D5000CDE90032032124AB4A469DED1E0B03989A
:104D600000F04AFA4D460746462E07EB05043FF48D
:104D700067AF6BE7B9F1000F31D1C5072FD401231D
:104D800004930993662642E6C3077FF5BFABFFF79E
:104D9000B9BB099AC3F101031A4422EAE2730992EA
:104DA0000493672633E6CDF828904FF0010957E4C5
:104DB0005A4611E5472E7FF45EAF18F0010F3FF41D
:104DC00061ABD1E700220023DDE91E0103F0E8FD1D
:104DD00000287FF439AFC5F10105249535E7159B0F
:104DE00001334B44099323EAE373049366260EE6EA
:104DF0000DF19A02FFF77ABB2AAA0799039802F0ED
:104E000007FF00287FF464A8DDE92B240DF1B40B23
:104E1000FFF7BDBB08999AF801600B6843EAE37994
:104E20000B1D92460893FEF759BB0DF19A03FFF74D
:104E300060BBDDF81C90B9F80C3043F04003A9F8D2
:104E40000C30FFF74CB800BF60A0000030A000009D
:104E5000CDCCCCCC18A0000014A000002DE9F0416E
:104E60000C46ADF58D6D8989666EE589199621F040
:104E700002010646E069ADF80C1017464FF4806158
:104E8000626AADF80E5098461AAD0023079016A836
:104E900009920693009504950291059101F00EFD8B
:104EA00043463A4669463046FEF79AFA051E07DB46
:104EB0003046694601F05AF9002818BF4FF0FF3517
:104EC000BDF80C305B0603D5A38943F04003A381F2
:104ED000169801F0F5FC28460DF58D6DBDE8F081C2
:104EE00021B1FF2A04D80A70012070470846704794
:104EF0008A2303604FF0FF30704700BF38B5314B55
:104F00001B6805460C4613B19A6B002A3AD0B4F9D7
:104F10000C2093B218070CD52069A8B113F0010238
:104F200020D0636900225B42A361A26000B300202D
:104F300038BDD9063ED5580728D4206942F0080369
:104F4000A3819BB20028E9D103F42072B2F5007F5F
:104F5000E4D02846214601F0E7FCA389206913F03C
:104F60000102DED1990758BF6269A2600028DED134
:104F7000B4F90C301A06DBD543F04003A3814FF09F
:104F8000FF3038BD184601F04DF9C0E7216B51B133
:104F900004F14003994204D0284601F0E5F9B4F940
:104FA0000C200023236300232069636022F0240285
:104FB0002060C3E742F0400209232B604FF0FF302E
:104FC000A28138BD08000020024B13B1024800F056
:104FD00079B8704700000000956200002DE9F04F9D
:104FE000354B85B00F460390186801F06BFC334BCE
:104FF0001B68019303F5A4730293B946019BD3F890
:1050000048613EB3DDF808A04FF001087468651EE2
:105010000FD4013406EB84040027B9F1000F20D02F
:10502000D4F800314B451CD0013D6B1CA4F10404A5
:10503000F3D1234B73B1D6E90032002A34D1002BCF
:1050400032D03046CAF8003001F0C0FCDAF8006017
:10505000002EDBD1184B186805B0BDE8F04F01F009
:1050600033BC73682268013BAB420CBF756027609C
:10507000002AD9D0D6F88811D6F804B008FA05F37A
:105080000B4208D1904773685B45B7D1DAF800301E
:10509000B342C9D0B2E7D6F88C01D4F880100342ED
:1050A00007D103989047EEE7B2461E46002EADD1D9
:1050B000D0E708469047E6E7A4050020F49F0000EB
:1050C000CD690000002301461A46184602F0AABD29
:1050D0002DE9F04F03690F69BB4283B0C0F28680AF
:1050E000013F01F1140900F1140A59F827205AF878
:1050F0002730BC000132B3FBF2F80AEB0403009442
:1051000009EB040B0193B8F1000F38D000252E46AF
:10511000CE46D4465EF8044BDCF80030A2B208FB61
:105120000255220C2C0C08FB0242ADB2751B96B244
:10513000C6EB134615FA83F306EB23469BB243EA0C
:105140000643F3454FEA12454CF8043B4FEA264626
:10515000E0D2009B5AF803308BB9019A131F9A458D
:105160000CD252F8043C4BB9A2F1080302E01A68D1
:10517000043B1AB99A4507F1FF37F8D30761044693
:1051800002F0ACF900282DDB08F101085546002398
:1051900059F8041B28688AB29A1A0B0C12FA80F28A
:1051A000C3EB104303EB224392B242EA0342CB45E6
:1051B00045F8042B4FEA2343EAD25AF827200AEB9A
:1051C00087037AB91A1F92450BD253F8042C42B9BF
:1051D000083B02E01A68043B1AB99A4507F1FF3709
:1051E000F8D32761404603B0BDE8F08F002003B03C
:1051F000BDE8F08F000000002DE9F04F55EC104B9A
:105200009BB0066C0291814607920593CDE900455B
:1052100056B1426C726001239340B360314601F095
:105220006DFF0023C9F84030B5F10008249AB4BFDF
:10523000012300231360764BBCBF28F00048CDF853
:10524000048033EA080300F0A680DDE9006700224D
:1052500000233046394603F0A3FB054678B1059A92
:1052600001231360259B002B00F0C080694B259A19
:1052700003F1FF3B136058461BB0BDE8F08F18AA3E
:1052800019A947EC106B484602F0BAF95FEA1854C6
:10529000824640F0A080DDE918542C4404F23243E9
:1052A000202B40F32C84C3F1400308FA03F8009B41
:1052B00004F2124023FA00F048EA000003F08EF8EE
:1052C00001230646013CA1F1F8770F933046394699
:1052D0000022514B02F044FF47A3D3E9002303F01F
:1052E000F7F847A3D3E9002302F03CFF0646204627
:1052F0000F4603F083F844A3D3E9002303F0E8F852
:1053000002460B463046394602F02CFF06460F4651
:1053100003F08EFB0022069000233046394603F04E
:1053200049FB002840F07382069E162E00F25D8233
:105330003A4B03EBC603D3E90001DDE9002303F098
:1053400057FB002800F0D783731E069300230D93AC
:105350002C1BB4F1010800F1548200230893069B32
:10536000002BC0F2458298440C9300230B93029BC0
:10537000092B5BD8052B40F3C083043B0293002527
:10538000029B023B032B00F29884DFE813F0DF035B
:10539000BF03E803F504059A42F20F731360009B04
:1053A00083B9C8F313036BB9259BDFF874B0002BE6
:1053B0003FF461AF0BF10803259A584613601BB008
:1053C000BDE8F08F259BDFF85CB0002B3FF453AFB6
:1053D0000BF10303F0E7C7F3130343F07F570F9577
:1053E000A4F2FF3447F44017189D6FE7DFF838B098
:1053F00058461BB0BDE8F08F61436F63A787D23F6B
:10540000B3C8608B288AC63FFB799F501344D33FB3
:105410000000F07F4DA000000000F83FB0A10000A8
:1054200074A1000080A100004CA000004FF0FF34E8
:105430000125CDE909450023029307930021C9F80E
:1054400044100E94484601F033FE0E2C8346C9F8F2
:10545000400000F2FB80002D00F0F8809DED007B05
:10546000069900298DED107B40F3E5839D4B01F0FB
:105470000F0203EBC20393ED007B0C11E2068DEDEE
:10548000007B40F19E84984BDDE91001D3E90823AD
:1054900003F048F9CDE9120104F00F0403267CB1B2
:1054A000DDE90001904DE30704D5D5E9002303F0C1
:1054B0000FF80136641005F10805F4D1CDE90001BB
:1054C000DDE90023DDE9120103F02CF9CDE900014B
:1054D0000D9B43B10022854BDDE9000103F06AFA20
:1054E000002840F0FF84304602F088FFDDE9002309
:1054F00002F0EEFF7E4B002202F034FE099B0646CE
:10550000A1F15077002B00F01C84069B1693099B99
:105510001293DDE9000103F08BFA129A714B03EB51
:10552000C20313ED027B00F130058DED147B02F018
:1055300065FF0B460246DDE90001CDE9006702F098
:105540000FFE0A9BEDB206460F460BF10104002B3D
:1055500000F05884DDE914230020664903F0E2F8E6
:10556000DDE9002302F0FCFD8BF8005032463B469B
:10557000CDE9000103F03CFA002840F002853246F4
:105580003B460020594902F0EBFD02460B46DDE99F
:10559000000103F02DFA002840F0FB84129A012A42
:1055A00050D05A44CDF85C80CDF848A0CDF850B02A
:1055B0009246CB46DDE900890CE000204B4902F021
:1055C000CFFD42464B4603F0F5F9002840F0DC845D
:1055D000544530D0404649460022474B02F078FF00
:1055E0000022454B804689463046394602F070FF1E
:1055F0000F46064603F01CFA054602F0FFFE02467F
:105600000B463046394602F0ABFD3035EDB242462E
:105610004B4604F8015B06460F4603F0CBF93246D1
:105620003B460028C9D0169BDDF848A00693D94612
:10563000DDF850B036E2D946DDF85C80DDF848A0F0
:10564000DDF850B0DDE91034CDE90034199B002BB2
:10565000C0F2AE80069A0E2A00F3AA80214B03EB1B
:10566000C20393ED007B079B002B8DED027BC0F204
:10567000BE82DDE90067DDE902233046394603F0EA
:1056800051F803F0D5F9054602F0B8FEDDE9022332
:1056900002F01EFF0B4602463946304602F060FD1E
:1056A00005F130038BF80030099B012B06460F46AD
:1056B0000BF1010453D000220F4B02F009FF00222E
:1056C000002306460F4603F06BF9002840F0EA81FC
:1056D000CDF800A0CDF81C90DDF82480DDE9029A19
:1056E00017E000BFB0A1000088A100000000F03F5B
:1056F00000001C400000E03F0000244002F0E8FEF3
:105700000022002306460F4603F04AF9002840F025
:105710003D834A4653463046394603F003F803F0CA
:1057200087F9054602F06AFE4A46534602F0D0FE6B
:1057300002460B463046394602F012FD05F1300CA8
:1057400004F801CBA4EB0B0CE04506460F464FF0E6
:105750000002C14BD2D1DDF800A0DDF81C9032462A
:105760003B463046394602F0FDFCDDE902230646A1
:105770000F4603F03DF958B9DDE9022330463946BA
:1057800003F00EF9002800F08D81E90740F18A81CD
:1057900014F8015C05E09B4500F0738313F8015C8D
:1057A0001C46392D04F1FF33F5D001351D7079E128
:1057B0000A9A002A3BD0029A012A40F30B82099BE5
:1057C0005F1E0B9BBB42C0F2E682DF1B099B002BD6
:1057D000C0F20B83089A14461A4498440892012197
:1057E000484601F025FD054624E001230D93AFE571
:1057F000089A069BD21A5B420B93002308920C93E3
:10580000B5E5C4F1010308934FF00008A7E5DDF802
:105810001880404602F0F2FD32463B4603F0C0F8E5
:1058200000287FF481AD08F1FF3306937CE50B9FE0
:10583000089C0A9D002C0CDDB8F1000F09DD4445E1
:10584000089A2346A8BF4346D21A0892E41AA8EB46
:1058500003080B9B6BB10A9A002A00F09082DE1BB2
:10586000002F40F09B8151463246484601F090FDA2
:1058700082460121484601F0DBFC0C9A0646002ACC
:1058800040F02581029B012B40F36C8101204044B4
:1058900010F01F0000F01981C0F12003042B40F329
:1058A000AC83C0F11C00089B03440893044480446B
:1058B000089B002B05DD51461A46484601F0B8FD0D
:1058C0008246B8F1000F05DD31464246484601F0F8
:1058D000AFFD06460D9B002B77D1099B002B40F3B3
:1058E00009820A9B002B00F08980002C00F36B8159
:1058F0000C9B002B40F0CD81A846009ACDF82CB02F
:1059000002F001020A92099A0BF1FF331A445F4632
:105910000992B34659465046FFF7DAFB294604463A
:10592000504601F0DBFD594606464246484601F026
:10593000F1FD04F130030093C3680146002B40F0F1
:10594000D4810890504601F0C9FD089A079011468D
:10595000484601F0D3FB079B33B9029A22B90A9B50
:10596000002B00F01983029B002EC0F21C8205D18F
:10597000029A1AB90A9A002A00F01582002B07F140
:10598000010400F32582009B3B70099BBB4200F0A1
:105990003082514600230A22484601F0B9FB4545B2
:1059A000824629464FF000034FF00A02484600F0B5
:1059B000968101F0ADFB4146054600230A22484688
:1059C00001F0A6FB27468046A4E73146504601F089
:1059D00085FD002881DA069F514600230A224846A9
:1059E000013F069701F094FB0A9B8246002B40F092
:1059F000EB820E9B002B40F3F38209935C46DDF8AB
:105A0000248002E001F084FB824631465046FFF7D5
:105A10005FFB00F1300704F8017BA4EB0B03984512
:105A20004FF00A024FF0000351464846EADC0023DB
:105A30000097029351460122484601F0F9FC314695
:105A4000824601F04BFD002814F8012C14DC08D12B
:105A5000009BDB0710D404E00000244014F8022C63
:105A60001C46302A04F1FF33F8D00BE09B4500F0D0
:105A70004E8113F8012C1C46392A04F1FF33F5D06E
:105A800001321A703146484601F038FB55B102998F
:105A900021B1A94202D0484601F030FB29464846D0
:105AA00001F02CFB5146484601F028FB0022069BE2
:105AB0002270059A01331360259B002B3FF4DBAB6A
:105AC00058461C601BB0BDE8F08F1C20EBE6014679
:105AD000484601F05DFC029B012B064640F3D48052
